:020000040800F2
:100000000030002041060008550500085B05000887
:1000100061050008670500086D0500080000000084
:100020000000000000000000000000007305000850
:1000300081050008000000008F0500089D050008EC
:100040009106000891060008910600089106000834
:100050009106000891060008910600089106000824
:100060009106000891060008910600089106000814
:100070009106000891060008910600089106000804
:1000800091060008910600089106000891060008F4
:1000900091060008910600089106000891060008E4
:1000A00091060008910600089106000891060008D4
:1000B0009106000891060008000000009106000863
:1000C00091060008000000000000000091060008F2
:1000D0000000000091060008910600089106000843
:1000E00091060008910600080000000000000000D2
:1000F0000000000000000000000000000000000000
:1001000000000000000000000000000000000000EF
:1001100000000000000000009106000891060008A1
:1001200000000000000000000000000000000000CF
:1001300000000000000000000000000000000000BF
:1001400091060008910600080000000091060008D2
:100150009106000891060008910600089106000823
:100160009106000891060008000000000000000051
:10017000000000000000000000000000000000007F
:080180000000000091060008D8
:1001880010B5054C237833B9044B13B10448AFF3C9
:1001980000800123237010BD04000020000000002F
:1001A800DC06000808B5034B1BB103490348AFF34D
:1001B800008008BD0000000008000020DC060008E0
:1001C80080B485B000AF78607B6803F00703FB60FC
:1001D8000C4BDB68BB60BA684FF6FF031340BB608B
:1001E800FB681A02BB68134343F0BF6343F4003350
:1001F800BB60044ABB68D36000BF1437BD465DF8D6
:10020800047B704700ED00E080B400AF044BDB686E
:100218001B0A03F007031846BD465DF8047B7047C8
:1002280000ED00E080B483B000AF03463960FB7195
:1002380097F90730002B0ADB0D4997F907303A6820
:10024800D2B21201D2B20B4483F800230AE0094962
:10025800FB7903F00F03043B3A68D2B21201D2B221
:100268000B441A7600BF0C37BD465DF8047B704717
:1002780000E100E000ED00E080B489B000AFF86074
:10028800B9607A60FB6803F00703FB61FB69C3F19F
:100298000703042B28BF0423BB61FB690433062B27
:1002A80002D9FB69033B00E000237B610122BB69A3
:1002B80002FA03F35A1EBB681A407B699A4001216F
:1002C8007B6901FA03F3591E7B680B4013431846F8
:1002D8002437BD465DF8047B7047000080B400AF4A
:1002E800054A054B1B6843F00103136000BFBD4678
:1002F8005DF8047B704700BF0010024080B400AF77
:10030800064B1B6803F00203022B0CBF01230023DA
:10031800DBB21846BD465DF8047B7047001002400A
:1003280080B483B000AF78600749074B1B6823F09F
:10033800F8027B68DB0013430B6000BF0C37BD4637
:100348005DF8047B704700BF0010024080B483B0A2
:1003580000AF78600649064B5B6823F003027B68B0
:1003680013434B6000BF0C37BD465DF8047B7047F4
:100378000010024080B400AF044B5B6803F00C032C
:100388001846BD465DF8047B704700BF0010024068
:1003980080B483B000AF78600649064B5B6823F0F1
:1003A800F0027B6813434B6000BF0C37BD465DF815
:1003B800047B70470010024080B483B000AF7860BF
:1003C8000649064B5B6823F4E0627B6813434B6085
:1003D80000BF0C37BD465DF8047B70470010024033
:1003E80080B483B000AF78600649064B5B6823F49D
:1003F80060527B6813434B6000BF0C37BD465DF805
:10040800047B70470010024080B485B000AF78606C
:100418000849084BDA697B681343CB61054BDA69F5
:100428007B681340FB60FB6800BF1437BD465DF86E
:10043800047B70470010024080B485B000AF78603C
:100448000849084B9A697B6813438B61054B9A6985
:100458007B681340FB60FB6800BF1437BD465DF83E
:10046800047B70470010024080B483B000AF78600E
:100478000649064B1B6823F007027B6813430B6091
:1004880000BF0C37BD465DF8047B70470020024072
:1004980080B400AF044B1B6803F007031846BD4641
:1004A8005DF8047B704700BF0020024080B500AFB4
:1004B8000120FFF7C1FF4FF08050FFF7A5FF032091
:1004C800FFF77EFEFFF7A0FE034600220F21184625
:1004D800FFF7D2FE034619464FF0FF30FFF7A2FEA2
:1004E80000F002F8FEE7000080B500AF0020FFF73B
:1004F800BBFF00BFFFF7CCFF0346002BFAD1FFF785
:10050800EDFE00BFFFF7FAFE0346012BFAD11020DB
:10051800FFF706FF0020FFF73BFF0020FFF74CFF27
:100528000020FFF75DFF0020FFF710FF00BFFFF777
:1005380021FF0346002BFAD1034800F05FF8024878
:1005480000F06AF800BF80BD00127A0080B400AFE6
:10055800FEE780B400AFFEE780B400AFFEE780B4EA
:1005680000AFFEE780B400AFFEE780B400AF00BF85
:10057800BD465DF8047B704780B400AF00BFBD4640
:100588005DF8047B704780B400AF00BFBD465DF8DE
:10059800047B704780B400AF00BFBD465DF8047BA4
:1005A8007047000080B400AF064A064BD3F8883085
:1005B80043F47003C2F8883000BFBD465DF8047B81
:1005C800704700BF00ED00E080B483B000AF7860F2
:1005D800396009497A683B68B2FBF3F3013B4B6029
:1005E800054B00229A60044B05221A6000BF0C37A5
:1005F800BD465DF8047B704710E000E080B582B02E
:1006080000AF78604FF47A717868FFF7DDFF00BFBC
:100618000837BD4680BD000080B483B000AF786065
:10062800044A7B68136000BF0C37BD465DF8047B45
:10063800704700BF00000020DFF834D00D480E4995
:100648000E4A002302E0D458C4500433C4188C4224
:10065800F9D30B4A0B4C002301E013600432A24289
:10066800FBD3FFF79FFF00F011F8FFF71FFFFEE72E
:10067800003000200000002004000020FC060008D4
:100688000400002020000020FEE7000070B50D4E99
:100698000D4CA41BA4100025A54209D10B4E0C4CEF
:1006A80000F018F8A41BA4100025A54205D170BDC0
:1006B80056F8253098470135EEE756F82530984723
:1006C8000135F2E7F4060008F4060008F40600080D
:1006D800F8060008F8B500BFF8BC08BC9E4670478D
:0C06E800F8B500BFF8BC08BC9E46704787
:0406F400AD0100084C
:0406F800890100086C
:0406FC0000127A006E
:0400000508000641A8
:00000001FF
